{
  "contractName": "LightCommunityCoin",
  "abi": [
    {
      "constant": true,
      "inputs": [],
      "name": "name",
      "outputs": [
        {
          "name": "",
          "type": "string"
        }
      ],
      "payable": false,
      "stateMutability": "view",
      "type": "function"
    },
    {
      "constant": true,
      "inputs": [
        {
          "name": "",
          "type": "address"
        }
      ],
      "name": "balances",
      "outputs": [
        {
          "name": "",
          "type": "int256"
        }
      ],
      "payable": false,
      "stateMutability": "view",
      "type": "function"
    },
    {
      "constant": true,
      "inputs": [],
      "name": "decimals",
      "outputs": [
        {
          "name": "",
          "type": "int8"
        }
      ],
      "payable": false,
      "stateMutability": "view",
      "type": "function"
    },
    {
      "constant": true,
      "inputs": [],
      "name": "totalSupply_",
      "outputs": [
        {
          "name": "",
          "type": "int256"
        }
      ],
      "payable": false,
      "stateMutability": "view",
      "type": "function"
    },
    {
      "constant": true,
      "inputs": [],
      "name": "symbol",
      "outputs": [
        {
          "name": "",
          "type": "string"
        }
      ],
      "payable": false,
      "stateMutability": "view",
      "type": "function"
    },
    {
      "constant": true,
      "inputs": [],
      "name": "central",
      "outputs": [
        {
          "name": "",
          "type": "address"
        }
      ],
      "payable": false,
      "stateMutability": "view",
      "type": "function"
    },
    {
      "inputs": [
        {
          "name": "initialSupply",
          "type": "int256"
        },
        {
          "name": "tokenName",
          "type": "string"
        },
        {
          "name": "tokenSymbol",
          "type": "string"
        }
      ],
      "payable": false,
      "stateMutability": "nonpayable",
      "type": "constructor"
    },
    {
      "anonymous": false,
      "inputs": [
        {
          "indexed": true,
          "name": "from",
          "type": "address"
        },
        {
          "indexed": true,
          "name": "to",
          "type": "address"
        },
        {
          "indexed": false,
          "name": "value",
          "type": "int256"
        }
      ],
      "name": "Transfer",
      "type": "event"
    },
    {
      "anonymous": false,
      "inputs": [
        {
          "indexed": true,
          "name": "from",
          "type": "address"
        },
        {
          "indexed": false,
          "name": "value",
          "type": "int256"
        }
      ],
      "name": "Burn",
      "type": "event"
    },
    {
      "constant": false,
      "inputs": [
        {
          "name": "_to",
          "type": "address"
        },
        {
          "name": "_value",
          "type": "int256"
        }
      ],
      "name": "transfer",
      "outputs": [
        {
          "name": "success",
          "type": "bool"
        }
      ],
      "payable": false,
      "stateMutability": "nonpayable",
      "type": "function"
    },
    {
      "constant": false,
      "inputs": [
        {
          "name": "_from",
          "type": "address"
        },
        {
          "name": "_to",
          "type": "address"
        },
        {
          "name": "_value",
          "type": "int256"
        }
      ],
      "name": "transferFrom",
      "outputs": [
        {
          "name": "success",
          "type": "bool"
        }
      ],
      "payable": false,
      "stateMutability": "nonpayable",
      "type": "function"
    },
    {
      "constant": false,
      "inputs": [
        {
          "name": "_value",
          "type": "int256"
        }
      ],
      "name": "burn",
      "outputs": [
        {
          "name": "success",
          "type": "bool"
        }
      ],
      "payable": false,
      "stateMutability": "nonpayable",
      "type": "function"
    },
    {
      "constant": true,
      "inputs": [
        {
          "name": "_owner",
          "type": "address"
        }
      ],
      "name": "balanceOf",
      "outputs": [
        {
          "name": "",
          "type": "int256"
        }
      ],
      "payable": false,
      "stateMutability": "view",
      "type": "function"
    },
    {
      "constant": true,
      "inputs": [],
      "name": "totalSupply",
      "outputs": [
        {
          "name": "",
          "type": "int256"
        }
      ],
      "payable": false,
      "stateMutability": "view",
      "type": "function"
    }
  ],
  "bytecode": "0x60806040526005600260006101000a81548160ff021916908360000b60ff16021790555034801561002f57600080fd5b50604051610b6b380380610b6b83398101806040528101908080519060200190929190805182019291906020018051820192919050505082600381905550600354600560003373ffffffffffffffffffffffffffffffffffffffff1673ffffffffffffffffffffffffffffffffffffffff1681526020019081526020016000208190555081600090805190602001906100c992919061012a565b5080600190805190602001906100e092919061012a565b5033600460006101000a81548173ffffffffffffffffffffffffffffffffffffffff021916908373ffffffffffffffffffffffffffffffffffffffff1602179055505050506101cf565b828054600181600116156101000203166002900490600052602060002090601f016020900481019282601f1061016b57805160ff1916838001178555610199565b82800160010185558215610199579182015b8281111561019857825182559160200191906001019061017d565b5b5090506101a691906101aa565b5090565b6101cc91905b808211156101c85760008160009055506001016101b0565b5090565b90565b61098d806101de6000396000f3006080604052600436106100af576000357c0100000000000000000000000000000000000000000000000000000000900463ffffffff16806306fdde03146100b45780630c0412ea1461014457806318160ddd14610189578063192193b9146101b457806327e235e314610239578063313ce56714610290578063324536eb146102c157806370a08231146102ec57806395d89b4114610343578063a5f7c148146103d3578063b7826af814610438575b600080fd5b3480156100c057600080fd5b506100c961048f565b6040518080602001828103825283818151815260200191508051906020019080838360005b838110156101095780820151818401526020810190506100ee565b50505050905090810190601f1680156101365780820380516001836020036101000a031916815260200191505b509250505060405180910390f35b34801561015057600080fd5b5061016f6004803603810190808035906020019092919050505061052d565b604051808215151515815260200191505060405180910390f35b34801561019557600080fd5b5061019e610631565b6040518082815260200191505060405180910390f35b3480156101c057600080fd5b5061021f600480360381019080803573ffffffffffffffffffffffffffffffffffffffff169060200190929190803573ffffffffffffffffffffffffffffffffffffffff1690602001909291908035906020019092919050505061063b565b604051808215151515815260200191505060405180910390f35b34801561024557600080fd5b5061027a600480360381019080803573ffffffffffffffffffffffffffffffffffffffff169060200190929190505050610653565b6040518082815260200191505060405180910390f35b34801561029c57600080fd5b506102a561066b565b604051808260000b60000b815260200191505060405180910390f35b3480156102cd57600080fd5b506102d661067e565b6040518082815260200191505060405180910390f35b3480156102f857600080fd5b5061032d600480360381019080803573ffffffffffffffffffffffffffffffffffffffff169060200190929190505050610684565b6040518082815260200191505060405180910390f35b34801561034f57600080fd5b506103586106cd565b6040518080602001828103825283818151815260200191508051906020019080838360005b8381101561039857808201518184015260208101905061037d565b50505050905090810190601f1680156103c55780820380516001836020036101000a031916815260200191505b509250505060405180910390f35b3480156103df57600080fd5b5061041e600480360381019080803573ffffffffffffffffffffffffffffffffffffffff1690602001909291908035906020019092919050505061076b565b604051808215151515815260200191505060405180910390f35b34801561044457600080fd5b5061044d610782565b604051808273ffffffffffffffffffffffffffffffffffffffff1673ffffffffffffffffffffffffffffffffffffffff16815260200191505060405180910390f35b60008054600181600116156101000203166002900480601f0160208091040260200160405190810160405280929190818152602001828054600181600116156101000203166002900480156105255780601f106104fa57610100808354040283529160200191610525565b820191906000526020600020905b81548152906001019060200180831161050857829003601f168201915b505050505081565b600081600560003373ffffffffffffffffffffffffffffffffffffffff1673ffffffffffffffffffffffffffffffffffffffff168152602001908152602001600020541215151561057d57600080fd5b81600560003373ffffffffffffffffffffffffffffffffffffffff1673ffffffffffffffffffffffffffffffffffffffff16815260200190815260200160002060008282540392505081905550816003600082825403925050819055503373ffffffffffffffffffffffffffffffffffffffff167f15b30117f67e76dd73831ff8975fb1c935c04403874c94ee80bcff8488f12af1836040518082815260200191505060405180910390a260019050919050565b6000600354905090565b60006106488484846107a8565b600190509392505050565b60056020528060005260406000206000915090505481565b600260009054906101000a900460000b81565b60035481565b6000600560008373ffffffffffffffffffffffffffffffffffffffff1673ffffffffffffffffffffffffffffffffffffffff168152602001908152602001600020549050919050565b60018054600181600116156101000203166002900480601f0160208091040260200160405190810160405280929190818152602001828054600181600116156101000203166002900480156107635780601f1061073857610100808354040283529160200191610763565b820191906000526020600020905b81548152906001019060200180831161074657829003601f168201915b505050505081565b60006107783384846107a8565b6001905092915050565b600460009054906101000a900473ffffffffffffffffffffffffffffffffffffffff1681565b60008273ffffffffffffffffffffffffffffffffffffffff16141515156107ce57600080fd5b600560008373ffffffffffffffffffffffffffffffffffffffff1673ffffffffffffffffffffffffffffffffffffffff1681526020019081526020016000205481600560008573ffffffffffffffffffffffffffffffffffffffff1673ffffffffffffffffffffffffffffffffffffffff16815260200190815260200160002054011215151561085d57600080fd5b80600560003373ffffffffffffffffffffffffffffffffffffffff1673ffffffffffffffffffffffffffffffffffffffff1681526020019081526020016000206000828254039250508190555080600560008473ffffffffffffffffffffffffffffffffffffffff1673ffffffffffffffffffffffffffffffffffffffff168152602001908152602001600020600082825401925050819055508173ffffffffffffffffffffffffffffffffffffffff168373ffffffffffffffffffffffffffffffffffffffff167f8b0c34a52f9e28d78caaa7066cd047b398dae74941a208b77777420f492bd7e1836040518082815260200191505060405180910390a35050505600a165627a7a7230582032552c31a3e65151cb2b16be66c1ff2f5509a3cf67e41ce8a79384b5c71313b10029",
  "source": "pragma solidity ^0.4.24;\r\n\r\ncontract LightCommunityCoin {\r\n\r\n    /*\r\n    * @title CommunityCoinContract\r\n    * @auther Kazuki Asa\r\n    * @notice コミュニティ共通のコインと、コミュニティ内で有効な個人コインを発行します。\r\n    *         負の残高を取ることも可能です。\r\n    * @dev 将来的には利子率も実装する\r\n     */\r\n\r\n    // Public variables of the token\r\n    string public name;\r\n    string public symbol;\r\n    int8 public decimals = 5;\r\n    // 18 decimals is the strongly suggested default, avoid changing it\r\n    int256 public totalSupply_;\r\n    address public central;\r\n\r\n    // This creates an array with all balances\r\n    mapping (address => int256) public balances;\r\n\r\n    // This generates a public event on the blockchain that will notify clients\r\n    event Transfer(address indexed from, address indexed to, int256 value);\r\n    // event IssuePersonCoin(address owner, address issuer, int value);\r\n    event Burn(address indexed from, int256 value);\r\n\r\n    // 個人コイン台帳:ownerをkeyに、その人が保有している個人コインの保有量を参照する.\r\n    // mapping (address => mapping (address => int256)) public personCoin;\r\n    // // 個人コイン保有リスト:ownerをkeyに、その人が保有している個人コインのアドレスリストを参照する.\r\n    // mapping (address => address[]) public ownCoins;\r\n    // // 初回ボーナスを受け取った人のリスト\r\n    // mapping (address => bool) public whoGetBonus;\r\n\r\n    /**\r\n     * Constructor function\r\n     *\r\n     * Initializes contract with initial supply tokens to the creator of the contract\r\n     */\r\n    constructor(\r\n        int256 initialSupply,\r\n        string tokenName,\r\n        string tokenSymbol\r\n    ) public {\r\n        totalSupply_ = initialSupply;  // Update total supply with the decimal amount\r\n        balances[msg.sender] = totalSupply_;                // Give the creator all initial tokens\r\n        name = tokenName;                                   // Set the name for display purposes\r\n        symbol = tokenSymbol;                               // Set the symbol for display purposes\r\n        central = msg.sender;                               // Set the address who create this coin.\r\n    }\r\n\r\n    /**\r\n     * Internal transfer, only can be called by this contract\r\n     */\r\n    function _transfer(address _from, address _to, int _value) internal {\r\n        // Prevent transfer to 0x0 address. Use burn() instead\r\n        require(_to != 0x0);\r\n        // Check for overflows\r\n        require(balances[_to] + _value >= balances[_to]);\r\n        // Save this for an assertion in the future\r\n        // int previousBalances = balances[_from] + balances[_to];\r\n        // Subtract from the sender\r\n        balances[msg.sender] -= _value;\r\n        balances[_to] += _value;\r\n        emit Transfer(_from, _to, _value);\r\n    }\r\n\r\n    /**\r\n    * @dev Issue personal coin.\r\n    * @param _owner The address to recieve personal coin.\r\n    * @param _issuer The address to issue personal coin.\r\n    * @param _value The amount to be issued.\r\n    */\r\n    // function _transferPersonalCoin(address _owner, address _issuer, int256 _value) internal {\r\n    //     if (personCoin[_owner][_issuer] == 0) {\r\n    //         // if owner don't have issur's coin、add ownCoins to owner's personCoin list.\r\n    //         ownCoins[_owner].push(_issuer);\r\n    //     }\r\n    //     // transfer personal coin.\r\n    //     personCoin[_owner][_issuer] += _value;\r\n    //     // memory issur's amount of issued coin.\r\n    //     personCoin[_issuer][_issuer] += _value;\r\n    //     emit IssuePersonCoin(_owner, _issuer, _value);\r\n    // }\r\n\r\n    /**\r\n     * Transfer tokens\r\n     *\r\n     * Send `_value` tokens to `_to` from your account\r\n     *\r\n     * @param _to The address of the recipient\r\n     * @param _value the amount to send\r\n     */\r\n    function transfer(address _to, int256 _value) public returns (bool success) {\r\n        _transfer(msg.sender, _to, _value);\r\n        // _transferPersonalCoin(msg.sender, _to, _value);\r\n        return true;\r\n    }\r\n\r\n    /**\r\n     * Transfer tokens from other address\r\n     *\r\n     * Send `_value` tokens to `_to` on behalf of `_from`\r\n     *\r\n     * @param _from The address of the sender\r\n     * @param _to The address of the recipient\r\n     * @param _value the amount to send\r\n     */\r\n    function transferFrom(address _from, address _to, int256 _value) public returns (bool success) {\r\n        _transfer(_from, _to, _value);\r\n        // _transferPersonalCoin(msg.sender, _to, _value);\r\n        return true;\r\n    }\r\n\r\n    /**\r\n     * Destroy tokens\r\n     *\r\n     * Remove `_value` tokens from the system irreversibly\r\n     *\r\n     * @param _value the amount of money to burn\r\n     */\r\n    function burn(int256 _value) public returns (bool success) {\r\n        require(balances[msg.sender] >= _value);   // Check if the sender has enough\r\n        balances[msg.sender] -= _value;            // Subtract from the sender\r\n        totalSupply_ -= _value;                      // Updates totalSupply\r\n        emit Burn(msg.sender, _value);\r\n        return true;\r\n    }\r\n\r\n    /**\r\n    * @dev Gets the personal coin balance of the specified address.\r\n    * @param _owner The address to query the the balance of.\r\n    * @param _issuer The address to issue coin.\r\n    * @return An int256 representing the amount owned by the passed address.\r\n     */\r\n    // function personCoinBalancesbalances(address _owner, address _issuer) public view returns (int256) {\r\n    //     return personCoin[_owner][_issuer];\r\n    // }\r\n\r\n    /**\r\n    * @dev Gets the personal coin balance of the specified address.\r\n    * @param _owner The address to query the the balance of.\r\n    * @return An address[] representing the own personCoin list.\r\n     */\r\n    // function ownPersonCoinList(address _owner) public view returns (address[]) {\r\n    //     return ownCoins[_owner];\r\n    // }\r\n\r\n    /**\r\n     * @dev Gets certain amount of community coin only once.\r\n     * no param\r\n     */\r\n    // function getBonus() public {\r\n    //     require(whoGetBonus[msg.sender] =! true);\r\n    //     _transfer(central, msg.sender, 1000);\r\n    //     // memory the list who get bonus.\r\n    //     whoGetBonus[msg.sender] = true;\r\n    // }\r\n\r\n    /**\r\n     * @dev Get token balance\r\n     * @param _owner address to know balance.\r\n     */\r\n    function balanceOf(address _owner) public view returns (int256) {\r\n        return balances[_owner];\r\n    }\r\n\r\n    /**\r\n    * @dev Total number of tokens in existence\r\n    */\r\n    function totalSupply() public view returns (int256) {\r\n        return totalSupply_;\r\n    }\r\n}\r\n",
  "sourcePath": "C:\\Users\\Kazuki\\Documents\\コミュニティーコイン\\ethereum\\CommunityCoin\\contracts\\SimpleCommunityCoin.sol",
  "compiler": {
    "name": "solc",
    "version": "0.4.24+commit.e67f0147.Emscripten.clang"
  },
  "schemaVersion": "2.0.1",
  "updatedAt": "2018-10-28T11:14:12.225Z"
}